{"abi":[{"type":"constructor","inputs":[{"name":"_name","type":"string","internalType":"string"},{"name":"_symbol","type":"string","internalType":"string"},{"name":"_baseURI","type":"string","internalType":"string"},{"name":"_usdcTokenAddress","type":"address","internalType":"address"}],"stateMutability":"nonpayable"},{"type":"function","name":"approve","inputs":[{"name":"to","type":"address","internalType":"address"},{"name":"tokenId","type":"uint256","internalType":"uint256"}],"outputs":[],"stateMutability":"nonpayable"},{"type":"function","name":"balanceOf","inputs":[{"name":"owner","type":"address","internalType":"address"}],"outputs":[{"name":"","type":"uint256","internalType":"uint256"}],"stateMutability":"view"},{"type":"function","name":"baseURI","inputs":[],"outputs":[{"name":"","type":"string","internalType":"string"}],"stateMutability":"view"},{"type":"function","name":"currentTokenId","inputs":[],"outputs":[{"name":"","type":"uint256","internalType":"uint256"}],"stateMutability":"view"},{"type":"function","name":"getApproved","inputs":[{"name":"tokenId","type":"uint256","internalType":"uint256"}],"outputs":[{"name":"","type":"address","internalType":"address"}],"stateMutability":"view"},{"type":"function","name":"isApprovedForAll","inputs":[{"name":"owner","type":"address","internalType":"address"},{"name":"operator","type":"address","internalType":"address"}],"outputs":[{"name":"","type":"bool","internalType":"bool"}],"stateMutability":"view"},{"type":"function","name":"mintPrice","inputs":[],"outputs":[{"name":"","type":"uint256","internalType":"uint256"}],"stateMutability":"view"},{"type":"function","name":"mintTo","inputs":[{"name":"recipient","type":"address","internalType":"address"}],"outputs":[{"name":"","type":"uint256","internalType":"uint256"}],"stateMutability":"nonpayable"},{"type":"function","name":"name","inputs":[],"outputs":[{"name":"","type":"string","internalType":"string"}],"stateMutability":"view"},{"type":"function","name":"ownerOf","inputs":[{"name":"tokenId","type":"uint256","internalType":"uint256"}],"outputs":[{"name":"","type":"address","internalType":"address"}],"stateMutability":"view"},{"type":"function","name":"safeTransferFrom","inputs":[{"name":"from","type":"address","internalType":"address"},{"name":"to","type":"address","internalType":"address"},{"name":"tokenId","type":"uint256","internalType":"uint256"}],"outputs":[],"stateMutability":"nonpayable"},{"type":"function","name":"safeTransferFrom","inputs":[{"name":"from","type":"address","internalType":"address"},{"name":"to","type":"address","internalType":"address"},{"name":"tokenId","type":"uint256","internalType":"uint256"},{"name":"data","type":"bytes","internalType":"bytes"}],"outputs":[],"stateMutability":"nonpayable"},{"type":"function","name":"setApprovalForAll","inputs":[{"name":"operator","type":"address","internalType":"address"},{"name":"approved","type":"bool","internalType":"bool"}],"outputs":[],"stateMutability":"nonpayable"},{"type":"function","name":"supportsInterface","inputs":[{"name":"interfaceId","type":"bytes4","internalType":"bytes4"}],"outputs":[{"name":"","type":"bool","internalType":"bool"}],"stateMutability":"view"},{"type":"function","name":"symbol","inputs":[],"outputs":[{"name":"","type":"string","internalType":"string"}],"stateMutability":"view"},{"type":"function","name":"tokenURI","inputs":[{"name":"tokenId","type":"uint256","internalType":"uint256"}],"outputs":[{"name":"","type":"string","internalType":"string"}],"stateMutability":"view"},{"type":"function","name":"transferFrom","inputs":[{"name":"from","type":"address","internalType":"address"},{"name":"to","type":"address","internalType":"address"},{"name":"tokenId","type":"uint256","internalType":"uint256"}],"outputs":[],"stateMutability":"nonpayable"},{"type":"function","name":"usdcToken","inputs":[],"outputs":[{"name":"","type":"address","internalType":"contract IERC20"}],"stateMutability":"view"},{"type":"event","name":"Approval","inputs":[{"name":"owner","type":"address","indexed":true,"internalType":"address"},{"name":"approved","type":"address","indexed":true,"internalType":"address"},{"name":"tokenId","type":"uint256","indexed":true,"internalType":"uint256"}],"anonymous":false},{"type":"event","name":"ApprovalForAll","inputs":[{"name":"owner","type":"address","indexed":true,"internalType":"address"},{"name":"operator","type":"address","indexed":true,"internalType":"address"},{"name":"approved","type":"bool","indexed":false,"internalType":"bool"}],"anonymous":false},{"type":"event","name":"Transfer","inputs":[{"name":"from","type":"address","indexed":true,"internalType":"address"},{"name":"to","type":"address","indexed":true,"internalType":"address"},{"name":"tokenId","type":"uint256","indexed":true,"internalType":"uint256"}],"anonymous":false},{"type":"error","name":"ERC721IncorrectOwner","inputs":[{"name":"sender","type":"address","internalType":"address"},{"name":"tokenId","type":"uint256","internalType":"uint256"},{"name":"owner","type":"address","internalType":"address"}]},{"type":"error","name":"ERC721InsufficientApproval","inputs":[{"name":"operator","type":"address","internalType":"address"},{"name":"tokenId","type":"uint256","internalType":"uint256"}]},{"type":"error","name":"ERC721InvalidApprover","inputs":[{"name":"approver","type":"address","internalType":"address"}]},{"type":"error","name":"ERC721InvalidOperator","inputs":[{"name":"operator","type":"address","internalType":"address"}]},{"type":"error","name":"ERC721InvalidOwner","inputs":[{"name":"owner","type":"address","internalType":"address"}]},{"type":"error","name":"ERC721InvalidReceiver","inputs":[{"name":"receiver","type":"address","internalType":"address"}]},{"type":"error","name":"ERC721InvalidSender","inputs":[{"name":"sender","type":"address","internalType":"address"}]},{"type":"error","name":"ERC721NonexistentToken","inputs":[{"name":"tokenId","type":"uint256","internalType":"uint256"}]},{"type":"error","name":"NonExistentTokenURI","inputs":[]},{"type":"error","name":"USDCTransferFailed","inputs":[]}],"bytecode":{"object":"0x6080604052346104a2576119d380380380610019816104a6565b92833981016080828203126104a25781516001600160401b0381116104a257816100449184016104cb565b60208301519092906001600160401b0381116104a257826100669183016104cb565b60408201519092906001600160401b0381116104a25760609161008a9184016104cb565b9101516001600160a01b038116908190036104a25783516001600160401b0381116102db575f54600181811c91168015610498575b60208210146102bd57601f8111610436575b50602094601f82116001146103d5579481929394955f926103ca575b50508160011b915f199060031b1c1916175f555b82516001600160401b0381116102db57600154600181811c911680156103c0575b60208210146102bd57601f811161035d575b506020601f82116001146102fa57819293945f926102ef575b50508160011b915f199060031b1c1916176001555b620f424060095581516001600160401b0381116102db57600654600181811c911680156102d1575b60208210146102bd57601f811161025a575b50602092601f82116001146101f957928192935f926101ee575b50508160011b915f199060031b1c1916176006555b600880546001600160a01b0319169190911790556040516114b6908161051d8239f35b015190505f806101b6565b601f1982169360065f52805f20915f5b868110610242575083600195961061022a575b505050811b016006556101cb565b01515f1960f88460031b161c191690555f808061021c565b91926020600181928685015181550194019201610209565b60065f527ff652222313e28459528d920b65115c16c04f3efc82aaedc97be59f3f377c0d3f601f830160051c810191602084106102b3575b601f0160051c01905b8181106102a8575061019c565b5f815560010161029b565b9091508190610292565b634e487b7160e01b5f52602260045260245ffd5b90607f169061018a565b634e487b7160e01b5f52604160045260245ffd5b015190505f8061014d565b601f1982169060015f52805f20915f5b8181106103455750958360019596971061032d575b505050811b01600155610162565b01515f1960f88460031b161c191690555f808061031f565b9192602060018192868b01518155019401920161030a565b60015f527fb10e2d527612073b26eecdfd717e6a320cf44b4afac2b0732d9fcbe2b7fa0cf6601f830160051c810191602084106103b6575b601f0160051c01905b8181106103ab5750610134565b5f815560010161039e565b9091508190610395565b90607f1690610122565b015190505f806100ed565b601f198216955f8052805f20915f5b88811061041e57508360019596979810610406575b505050811b015f55610101565b01515f1960f88460031b161c191690555f80806103f9565b919260206001819286850151815501940192016103e4565b5f80527f290decd9548b62a8d60345a988386fc84ba6bc95484008f6362f93160ef3e563601f830160051c8101916020841061048e575b601f0160051c01905b81811061048357506100d1565b5f8155600101610476565b909150819061046d565b90607f16906100bf565b5f80fd5b6040519190601f01601f191682016001600160401b038111838210176102db57604052565b81601f820112156104a2578051906001600160401b0382116102db576104fa601f8301601f19166020016104a6565b92828452602083830101116104a257815f9260208093018386015e830101529056fe6080806040526004361015610012575f80fd5b5f3560e01c9081629a9b7b14610daf5750806301ffc9a714610cdd57806306fdde0314610c25578063081812fc14610bdb578063095ea7b314610a7d57806311eac85514610a4a57806323b872dd14610a3357806342842e0e14610a045780636352211e146109c85780636817c76c146109ab5780636c0360eb1461099057806370a0823114610919578063755edd171461047a57806395d89b411461034f578063a22cb46514610270578063b88d4fde146101da578063c87b56dd146101585763e985e9c5146100e1575f80fd5b34610154576040600319360112610154576100fa610e0c565b73ffffffffffffffffffffffffffffffffffffffff610117610e2f565b91165f52600560205273ffffffffffffffffffffffffffffffffffffffff60405f2091165f52602052602060ff60405f2054166040519015158152f35b5f80fd5b346101545760206003193601126101545773ffffffffffffffffffffffffffffffffffffffff6101896004356112a4565b16156101b2576101ae61019a610f14565b604051918291602083526020830190610dc9565b0390f35b7fd872946b000000000000000000000000000000000000000000000000000000005f5260045ffd5b34610154576080600319360112610154576101f3610e0c565b6101fb610e2f565b906044356064359267ffffffffffffffff841161015457366023850112156101545783600401359261022c84611000565b9361023a6040519586610ea6565b8085523660248288010111610154576020815f92602461026e9901838901378601015261026883838361103a565b336112fd565b005b3461015457604060031936011261015457610289610e0c565b602435908115158092036101545773ffffffffffffffffffffffffffffffffffffffff1690811561032357335f52600560205260405f20825f5260205260405f207fffffffffffffffffffffffffffffffffffffffffffffffffffffffffffffff0081541660ff83161790556040519081527f17307eab39ab6107e8899845ad3d59bd9653f200f220920489ca2b5937696c3160203392a3005b507f5b08ba18000000000000000000000000000000000000000000000000000000005f5260045260245ffd5b34610154575f600319360112610154576040515f6001548060011c90600181168015610470575b6020831081146104435782855290811561040157506001146103a3575b6101ae8361019a81850382610ea6565b60015f9081527fb10e2d527612073b26eecdfd717e6a320cf44b4afac2b0732d9fcbe2b7fa0cf6939250905b8082106103e75750909150810160200161019a610393565b9192600181602092548385880101520191019092916103cf565b7fffffffffffffffffffffffffffffffffffffffffffffffffffffffffffffff001660208086019190915291151560051b8401909101915061019a9050610393565b7f4e487b71000000000000000000000000000000000000000000000000000000005f52602260045260245ffd5b91607f1691610376565b3461015457602060031936011261015457610493610e0c565b5f602073ffffffffffffffffffffffffffffffffffffffff60085416606460095460405194859384927f23b872dd00000000000000000000000000000000000000000000000000000000845233600485015230602485015260448401525af190811561090e575f916108d3575b50156108ab576007547fffffffffffffffffffffffffffffffffffffffffffffffffffffffffffffffff811461087e57600101806007556020906040516105478382610ea6565b5f815273ffffffffffffffffffffffffffffffffffffffff841693841561085257825f526002845273ffffffffffffffffffffffffffffffffffffffff60405f20541680151590816107e5575b865f526003865260405f2060018154019055845f526002865260405f20877fffffffffffffffffffffffff00000000000000000000000000000000000000008254161790558487827fddf252ad1be2c89b69c2b068fc378daa952ba7f163c4a11628f55a4df523b3ef5f80a4506107b9573b610614575b50604051908152f35b8261066691604051809381927f150b7a020000000000000000000000000000000000000000000000000000000083523360048401525f6024840152866044840152608060648401526084830190610dc9565b03815f885af15f9181610761575b506106e05750503d156106d9573d61068b81611000565b906106996040519283610ea6565b81523d5f8383013e5b805191826106d657837f64a0ae92000000000000000000000000000000000000000000000000000000005f5260045260245ffd5b01fd5b60606106a2565b7fffffffff000000000000000000000000000000000000000000000000000000007f150b7a020000000000000000000000000000000000000000000000000000000091949293941603610736575081908361060b565b7f64a0ae92000000000000000000000000000000000000000000000000000000005f5260045260245ffd5b9091508381813d83116107b2575b6107798183610ea6565b8101031261015457517fffffffff0000000000000000000000000000000000000000000000000000000081168103610154579085610674565b503d61076f565b7f73c6ac6e000000000000000000000000000000000000000000000000000000005f525f60045260245ffd5b61081c855f52600460205260405f207fffffffffffffffffffffffff00000000000000000000000000000000000000008154169055565b805f526003865260405f207fffffffffffffffffffffffffffffffffffffffffffffffffffffffffffffffff8154019055610594565b7f64a0ae92000000000000000000000000000000000000000000000000000000005f525f60045260245ffd5b7f4e487b71000000000000000000000000000000000000000000000000000000005f52601160045260245ffd5b7fa55b2887000000000000000000000000000000000000000000000000000000005f5260045ffd5b90506020813d602011610906575b816108ee60209383610ea6565b81010312610154575180151581036101545782610500565b3d91506108e1565b6040513d5f823e3d90fd5b346101545760206003193601126101545773ffffffffffffffffffffffffffffffffffffffff610947610e0c565b168015610964575f526003602052602060405f2054604051908152f35b7f89c62b64000000000000000000000000000000000000000000000000000000005f525f60045260245ffd5b34610154575f600319360112610154576101ae61019a610f14565b34610154575f600319360112610154576020600954604051908152f35b346101545760206003193601126101545760206109e66004356112a4565b73ffffffffffffffffffffffffffffffffffffffff60405191168152f35b346101545761026e610a1536610e52565b9060405192610a25602085610ea6565b5f845261026883838361103a565b346101545761026e610a4436610e52565b9161103a565b34610154575f60031936011261015457602073ffffffffffffffffffffffffffffffffffffffff60085416604051908152f35b3461015457604060031936011261015457610a96610e0c565b602435610aa2816112a4565b33151580610bbb575b80610b6e575b610b4257819073ffffffffffffffffffffffffffffffffffffffff80851691167f8c5be1e5ebec7d5bd14f71427d1e84f3dd0314c0f7b2291e5b200ac8c7c3b9255f80a45f52600460205273ffffffffffffffffffffffffffffffffffffffff60405f2091167fffffffffffffffffffffffff00000000000000000000000000000000000000008254161790555f80f35b7fa9fbf51f000000000000000000000000000000000000000000000000000000005f523360045260245ffd5b5073ffffffffffffffffffffffffffffffffffffffff81165f52600560205260405f2073ffffffffffffffffffffffffffffffffffffffff33165f5260205260ff60405f20541615610ab1565b503373ffffffffffffffffffffffffffffffffffffffff82161415610aab565b3461015457602060031936011261015457600435610bf8816112a4565b505f526004602052602073ffffffffffffffffffffffffffffffffffffffff60405f205416604051908152f35b34610154575f600319360112610154576040515f80548060011c90600181168015610cd3575b602083108114610443578285529081156104015750600114610c77576101ae8361019a81850382610ea6565b5f8080527f290decd9548b62a8d60345a988386fc84ba6bc95484008f6362f93160ef3e563939250905b808210610cb95750909150810160200161019a610393565b919260018160209254838588010152019101909291610ca1565b91607f1691610c4b565b34610154576020600319360112610154576004357fffffffff00000000000000000000000000000000000000000000000000000000811680910361015457807f80ac58cd0000000000000000000000000000000000000000000000000000000060209214908115610d85575b8115610d5b575b506040519015158152f35b7f01ffc9a70000000000000000000000000000000000000000000000000000000091501482610d50565b7f5b5e139f0000000000000000000000000000000000000000000000000000000081149150610d49565b34610154575f600319360112610154576020906007548152f35b907fffffffffffffffffffffffffffffffffffffffffffffffffffffffffffffffe0601f602080948051918291828752018686015e5f8582860101520116010190565b6004359073ffffffffffffffffffffffffffffffffffffffff8216820361015457565b6024359073ffffffffffffffffffffffffffffffffffffffff8216820361015457565b60031960609101126101545760043573ffffffffffffffffffffffffffffffffffffffff81168103610154579060243573ffffffffffffffffffffffffffffffffffffffff81168103610154579060443590565b90601f7fffffffffffffffffffffffffffffffffffffffffffffffffffffffffffffffe0910116810190811067ffffffffffffffff821117610ee757604052565b7f4e487b71000000000000000000000000000000000000000000000000000000005f52604160045260245ffd5b604051905f6006548060011c9160018216918215610ff6575b602084108314610443578386528592908115610fb95750600114610f5a575b610f5892500383610ea6565b565b5060065f90815290917ff652222313e28459528d920b65115c16c04f3efc82aaedc97be59f3f377c0d3f5b818310610f9d575050906020610f5892820101610f4c565b6020919350806001915483858901015201910190918492610f85565b60209250610f589491507fffffffffffffffffffffffffffffffffffffffffffffffffffffffffffffff001682840152151560051b820101610f4c565b92607f1692610f2d565b67ffffffffffffffff8111610ee757601f017fffffffffffffffffffffffffffffffffffffffffffffffffffffffffffffffe01660200190565b919073ffffffffffffffffffffffffffffffffffffffff16801561085257815f52600260205273ffffffffffffffffffffffffffffffffffffffff60405f205416928233151592836111bc575b73ffffffffffffffffffffffffffffffffffffffff93508561114e575b805f52600360205260405f2060018154019055815f52600260205260405f20817fffffffffffffffffffffffff0000000000000000000000000000000000000000825416179055857fddf252ad1be2c89b69c2b068fc378daa952ba7f163c4a11628f55a4df523b3ef5f80a41680830361111d57505050565b7f64283d7b000000000000000000000000000000000000000000000000000000005f5260045260245260445260645ffd5b611185825f52600460205260405f207fffffffffffffffffffffffff00000000000000000000000000000000000000008154169055565b855f52600360205260405f207fffffffffffffffffffffffffffffffffffffffffffffffffffffffffffffffff81540190556110a4565b9192905080611233575b156111d357828291611087565b8284611204577f7e273289000000000000000000000000000000000000000000000000000000005f5260045260245ffd5b7f177e802f000000000000000000000000000000000000000000000000000000005f523360045260245260445ffd5b50338414801561126e575b806111c65750825f5260046020523373ffffffffffffffffffffffffffffffffffffffff60405f205416146111c6565b50835f52600560205260405f2073ffffffffffffffffffffffffffffffffffffffff33165f5260205260ff60405f20541661123e565b805f52600260205273ffffffffffffffffffffffffffffffffffffffff60405f2054169081156112d2575090565b7f7e273289000000000000000000000000000000000000000000000000000000005f5260045260245ffd5b93909293823b61130f575b5050505050565b61137c73ffffffffffffffffffffffffffffffffffffffff928360209516968460405197889687967f150b7a020000000000000000000000000000000000000000000000000000000088521660048701521660248501526044840152608060648401526084830190610dc9565b03815f865af15f918161144c575b506113f857503d156113f1573d6113a081611000565b906113ae6040519283610ea6565b81523d5f602083013e5b805190816113ec57827f64a0ae92000000000000000000000000000000000000000000000000000000005f5260045260245ffd5b602001fd5b60606113b8565b7fffffffff000000000000000000000000000000000000000000000000000000007f150b7a020000000000000000000000000000000000000000000000000000000091160361073657505f80808080611308565b9091506020813d6020116114a1575b8161146860209383610ea6565b8101031261015457517fffffffff000000000000000000000000000000000000000000000000000000008116810361015457905f61138a565b3d915061145b56fea164736f6c634300081a000a","linkReferences":{}},"methodIdentifiers":{"approve(address,uint256)":"095ea7b3","balanceOf(address)":"70a08231","baseURI()":"6c0360eb","currentTokenId()":"009a9b7b","getApproved(uint256)":"081812fc","isApprovedForAll(address,address)":"e985e9c5","mintPrice()":"6817c76c","mintTo(address)":"755edd17","name()":"06fdde03","ownerOf(uint256)":"6352211e","safeTransferFrom(address,address,uint256)":"42842e0e","safeTransferFrom(address,address,uint256,bytes)":"b88d4fde","setApprovalForAll(address,bool)":"a22cb465","supportsInterface(bytes4)":"01ffc9a7","symbol()":"95d89b41","tokenURI(uint256)":"c87b56dd","transferFrom(address,address,uint256)":"23b872dd","usdcToken()":"11eac855"},"id":35}