{"abi":[{"type":"function","name":"increment","inputs":[],"outputs":[],"stateMutability":"nonpayable"},{"type":"function","name":"number","inputs":[],"outputs":[{"name":"","type":"uint256","internalType":"uint256"}],"stateMutability":"view"},{"type":"function","name":"setNumber","inputs":[{"name":"newNumber","type":"uint256","internalType":"uint256"}],"outputs":[],"stateMutability":"nonpayable"}],"bytecode":{"object":"0x60808060405234601557610146908161001a8239f35b5f80fdfe6080806040526004361015610012575f80fd5b5f3560e01c9081633fb5c1cb146101035781638381f58a146100cc575063d09de08a1461003d575f80fd5b346100c8575f7ffffffffffffffffffffffffffffffffffffffffffffffffffffffffffffffffc3601126100c8575f547fffffffffffffffffffffffffffffffffffffffffffffffffffffffffffffffff811461009b576001015f55005b7f4e487b71000000000000000000000000000000000000000000000000000000005f52601160045260245ffd5b5f80fd5b346100c8575f7ffffffffffffffffffffffffffffffffffffffffffffffffffffffffffffffffc3601126100c8576020905f548152f35b346100c85760207ffffffffffffffffffffffffffffffffffffffffffffffffffffffffffffffffc3601126100c8576004355f5500fea164736f6c634300081a000a","linkReferences":{}},"methodIdentifiers":{"increment()":"d09de08a","number()":"8381f58a","setNumber(uint256)":"3fb5c1cb"},"id":38}