{"abi":[{"type":"constructor","inputs":[{"name":"_name","type":"string","internalType":"string"},{"name":"_symbol","type":"string","internalType":"string"},{"name":"_baseURI","type":"string","internalType":"string"}],"stateMutability":"nonpayable"},{"type":"function","name":"approve","inputs":[{"name":"to","type":"address","internalType":"address"},{"name":"tokenId","type":"uint256","internalType":"uint256"}],"outputs":[],"stateMutability":"nonpayable"},{"type":"function","name":"balanceOf","inputs":[{"name":"owner","type":"address","internalType":"address"}],"outputs":[{"name":"","type":"uint256","internalType":"uint256"}],"stateMutability":"view"},{"type":"function","name":"baseURI","inputs":[],"outputs":[{"name":"","type":"string","internalType":"string"}],"stateMutability":"view"},{"type":"function","name":"currentTokenId","inputs":[],"outputs":[{"name":"","type":"uint256","internalType":"uint256"}],"stateMutability":"view"},{"type":"function","name":"getApproved","inputs":[{"name":"tokenId","type":"uint256","internalType":"uint256"}],"outputs":[{"name":"","type":"address","internalType":"address"}],"stateMutability":"view"},{"type":"function","name":"isApprovedForAll","inputs":[{"name":"owner","type":"address","internalType":"address"},{"name":"operator","type":"address","internalType":"address"}],"outputs":[{"name":"","type":"bool","internalType":"bool"}],"stateMutability":"view"},{"type":"function","name":"mintTo","inputs":[{"name":"recipient","type":"address","internalType":"address"}],"outputs":[{"name":"","type":"uint256","internalType":"uint256"}],"stateMutability":"payable"},{"type":"function","name":"name","inputs":[],"outputs":[{"name":"","type":"string","internalType":"string"}],"stateMutability":"view"},{"type":"function","name":"ownerOf","inputs":[{"name":"tokenId","type":"uint256","internalType":"uint256"}],"outputs":[{"name":"","type":"address","internalType":"address"}],"stateMutability":"view"},{"type":"function","name":"safeTransferFrom","inputs":[{"name":"from","type":"address","internalType":"address"},{"name":"to","type":"address","internalType":"address"},{"name":"tokenId","type":"uint256","internalType":"uint256"}],"outputs":[],"stateMutability":"nonpayable"},{"type":"function","name":"safeTransferFrom","inputs":[{"name":"from","type":"address","internalType":"address"},{"name":"to","type":"address","internalType":"address"},{"name":"tokenId","type":"uint256","internalType":"uint256"},{"name":"data","type":"bytes","internalType":"bytes"}],"outputs":[],"stateMutability":"nonpayable"},{"type":"function","name":"setApprovalForAll","inputs":[{"name":"operator","type":"address","internalType":"address"},{"name":"approved","type":"bool","internalType":"bool"}],"outputs":[],"stateMutability":"nonpayable"},{"type":"function","name":"supportsInterface","inputs":[{"name":"interfaceId","type":"bytes4","internalType":"bytes4"}],"outputs":[{"name":"","type":"bool","internalType":"bool"}],"stateMutability":"view"},{"type":"function","name":"symbol","inputs":[],"outputs":[{"name":"","type":"string","internalType":"string"}],"stateMutability":"view"},{"type":"function","name":"tokenURI","inputs":[{"name":"tokenId","type":"uint256","internalType":"uint256"}],"outputs":[{"name":"","type":"string","internalType":"string"}],"stateMutability":"view"},{"type":"function","name":"transferFrom","inputs":[{"name":"from","type":"address","internalType":"address"},{"name":"to","type":"address","internalType":"address"},{"name":"tokenId","type":"uint256","internalType":"uint256"}],"outputs":[],"stateMutability":"nonpayable"},{"type":"event","name":"Approval","inputs":[{"name":"owner","type":"address","indexed":true,"internalType":"address"},{"name":"approved","type":"address","indexed":true,"internalType":"address"},{"name":"tokenId","type":"uint256","indexed":true,"internalType":"uint256"}],"anonymous":false},{"type":"event","name":"ApprovalForAll","inputs":[{"name":"owner","type":"address","indexed":true,"internalType":"address"},{"name":"operator","type":"address","indexed":true,"internalType":"address"},{"name":"approved","type":"bool","indexed":false,"internalType":"bool"}],"anonymous":false},{"type":"event","name":"Transfer","inputs":[{"name":"from","type":"address","indexed":true,"internalType":"address"},{"name":"to","type":"address","indexed":true,"internalType":"address"},{"name":"tokenId","type":"uint256","indexed":true,"internalType":"uint256"}],"anonymous":false},{"type":"error","name":"ERC721IncorrectOwner","inputs":[{"name":"sender","type":"address","internalType":"address"},{"name":"tokenId","type":"uint256","internalType":"uint256"},{"name":"owner","type":"address","internalType":"address"}]},{"type":"error","name":"ERC721InsufficientApproval","inputs":[{"name":"operator","type":"address","internalType":"address"},{"name":"tokenId","type":"uint256","internalType":"uint256"}]},{"type":"error","name":"ERC721InvalidApprover","inputs":[{"name":"approver","type":"address","internalType":"address"}]},{"type":"error","name":"ERC721InvalidOperator","inputs":[{"name":"operator","type":"address","internalType":"address"}]},{"type":"error","name":"ERC721InvalidOwner","inputs":[{"name":"owner","type":"address","internalType":"address"}]},{"type":"error","name":"ERC721InvalidReceiver","inputs":[{"name":"receiver","type":"address","internalType":"address"}]},{"type":"error","name":"ERC721InvalidSender","inputs":[{"name":"sender","type":"address","internalType":"address"}]},{"type":"error","name":"ERC721NonexistentToken","inputs":[{"name":"tokenId","type":"uint256","internalType":"uint256"}]},{"type":"error","name":"NonExistentTokenURI","inputs":[]}],"bytecode":{"object":"0x6080604052346104685761184d803803806100198161046c565b92833981016060828203126104685781516001600160401b0381116104685781610044918401610491565b60208301519092906001600160401b0381116104685782610066918301610491565b60408201519092906001600160401b038111610468576100869201610491565b82516001600160401b0381116102a3575f54600181811c9116801561045e575b602082101461028557601f81116103fc575b506020601f821160011461039b57819293945f92610390575b50508160011b915f199060031b1c1916175f555b81516001600160401b0381116102a357600154600181811c91168015610386575b602082101461028557601f8111610323575b50602092601f82116001146102c257928192935f926102b7575b50508160011b915f199060031b1c1916176001555b80516001600160401b0381116102a357600654600181811c91168015610299575b602082101461028557601f8111610222575b50602091601f82116001146101c2579181925f926101b7575b50508160011b915f199060031b1c1916176006555b60405161136a90816104e38239f35b015190505f80610193565b601f1982169260065f52805f20915f5b85811061020a575083600195106101f2575b505050811b016006556101a8565b01515f1960f88460031b161c191690555f80806101e4565b919260206001819286850151815501940192016101d2565b60065f527ff652222313e28459528d920b65115c16c04f3efc82aaedc97be59f3f377c0d3f601f830160051c8101916020841061027b575b601f0160051c01905b818110610270575061017a565b5f8155600101610263565b909150819061025a565b634e487b7160e01b5f52602260045260245ffd5b90607f1690610168565b634e487b7160e01b5f52604160045260245ffd5b015190505f80610132565b601f1982169360015f52805f20915f5b86811061030b57508360019596106102f3575b505050811b01600155610147565b01515f1960f88460031b161c191690555f80806102e5565b919260206001819286850151815501940192016102d2565b60015f527fb10e2d527612073b26eecdfd717e6a320cf44b4afac2b0732d9fcbe2b7fa0cf6601f830160051c8101916020841061037c575b601f0160051c01905b8181106103715750610118565b5f8155600101610364565b909150819061035b565b90607f1690610106565b015190505f806100d1565b601f198216905f8052805f20915f5b8181106103e4575095836001959697106103cc575b505050811b015f556100e5565b01515f1960f88460031b161c191690555f80806103bf565b9192602060018192868b0151815501940192016103aa565b5f80527f290decd9548b62a8d60345a988386fc84ba6bc95484008f6362f93160ef3e563601f830160051c81019160208410610454575b601f0160051c01905b81811061044957506100b8565b5f815560010161043c565b9091508190610433565b90607f16906100a6565b5f80fd5b6040519190601f01601f191682016001600160401b038111838210176102a357604052565b81601f82011215610468578051906001600160401b0382116102a3576104c0601f8301601f191660200161046c565b928284526020838301011161046857815f9260208093018386015e830101529056fe6080806040526004361015610012575f80fd5b5f3560e01c9081629a9b7b14610c635750806301ffc9a714610b9157806306fdde0314610ad9578063081812fc14610a8f578063095ea7b31461093157806323b872dd1461091a57806342842e0e146108eb5780636352211e146108af5780636c0360eb1461089457806370a082311461081d578063755edd171461046457806395d89b4114610339578063a22cb4651461025a578063b88d4fde146101c4578063c87b56dd146101425763e985e9c5146100cb575f80fd5b3461013e57604060031936011261013e576100e4610cc0565b73ffffffffffffffffffffffffffffffffffffffff610101610ce3565b91165f52600560205273ffffffffffffffffffffffffffffffffffffffff60405f2091165f52602052602060ff60405f2054166040519015158152f35b5f80fd5b3461013e57602060031936011261013e5773ffffffffffffffffffffffffffffffffffffffff610173600435611158565b161561019c57610198610184610dc8565b604051918291602083526020830190610c7d565b0390f35b7fd872946b000000000000000000000000000000000000000000000000000000005f5260045ffd5b3461013e57608060031936011261013e576101dd610cc0565b6101e5610ce3565b906044356064359267ffffffffffffffff841161013e573660238501121561013e5783600401359261021684610eb4565b936102246040519586610d5a565b808552366024828801011161013e576020815f92602461025899018389013786010152610252838383610eee565b336111b1565b005b3461013e57604060031936011261013e57610273610cc0565b6024359081151580920361013e5773ffffffffffffffffffffffffffffffffffffffff1690811561030d57335f52600560205260405f20825f5260205260405f207fffffffffffffffffffffffffffffffffffffffffffffffffffffffffffffff0081541660ff83161790556040519081527f17307eab39ab6107e8899845ad3d59bd9653f200f220920489ca2b5937696c3160203392a3005b507f5b08ba18000000000000000000000000000000000000000000000000000000005f5260045260245ffd5b3461013e575f60031936011261013e576040515f6001548060011c9060018116801561045a575b60208310811461042d578285529081156103eb575060011461038d575b6101988361018481850382610d5a565b60015f9081527fb10e2d527612073b26eecdfd717e6a320cf44b4afac2b0732d9fcbe2b7fa0cf6939250905b8082106103d15750909150810160200161018461037d565b9192600181602092548385880101520191019092916103b9565b7fffffffffffffffffffffffffffffffffffffffffffffffffffffffffffffff001660208086019190915291151560051b84019091019150610184905061037d565b7f4e487b71000000000000000000000000000000000000000000000000000000005f52602260045260245ffd5b91607f1691610360565b602060031936011261013e57610478610cc0565b6007547fffffffffffffffffffffffffffffffffffffffffffffffffffffffffffffffff81146107f057600101806007556020906040516104b98382610d5a565b5f815273ffffffffffffffffffffffffffffffffffffffff84169384156107c457825f526002845273ffffffffffffffffffffffffffffffffffffffff60405f2054168015159081610757575b865f526003865260405f2060018154019055845f526002865260405f20877fffffffffffffffffffffffff00000000000000000000000000000000000000008254161790558487827fddf252ad1be2c89b69c2b068fc378daa952ba7f163c4a11628f55a4df523b3ef5f80a45061072b573b610586575b50604051908152f35b826105d891604051809381927f150b7a020000000000000000000000000000000000000000000000000000000083523360048401525f6024840152866044840152608060648401526084830190610c7d565b03815f885af15f91816106d3575b506106525750503d1561064b573d6105fd81610eb4565b9061060b6040519283610d5a565b81523d5f8383013e5b8051918261064857837f64a0ae92000000000000000000000000000000000000000000000000000000005f5260045260245ffd5b01fd5b6060610614565b7fffffffff000000000000000000000000000000000000000000000000000000007f150b7a0200000000000000000000000000000000000000000000000000000000919492939416036106a8575081908361057d565b7f64a0ae92000000000000000000000000000000000000000000000000000000005f5260045260245ffd5b9091508381813d8311610724575b6106eb8183610d5a565b8101031261013e57517fffffffff000000000000000000000000000000000000000000000000000000008116810361013e5790856105e6565b503d6106e1565b7f73c6ac6e000000000000000000000000000000000000000000000000000000005f525f60045260245ffd5b61078e855f52600460205260405f207fffffffffffffffffffffffff00000000000000000000000000000000000000008154169055565b805f526003865260405f207fffffffffffffffffffffffffffffffffffffffffffffffffffffffffffffffff8154019055610506565b7f64a0ae92000000000000000000000000000000000000000000000000000000005f525f60045260245ffd5b7f4e487b71000000000000000000000000000000000000000000000000000000005f52601160045260245ffd5b3461013e57602060031936011261013e5773ffffffffffffffffffffffffffffffffffffffff61084b610cc0565b168015610868575f526003602052602060405f2054604051908152f35b7f89c62b64000000000000000000000000000000000000000000000000000000005f525f60045260245ffd5b3461013e575f60031936011261013e57610198610184610dc8565b3461013e57602060031936011261013e5760206108cd600435611158565b73ffffffffffffffffffffffffffffffffffffffff60405191168152f35b3461013e576102586108fc36610d06565b906040519261090c602085610d5a565b5f8452610252838383610eee565b3461013e5761025861092b36610d06565b91610eee565b3461013e57604060031936011261013e5761094a610cc0565b60243561095681611158565b33151580610a6f575b80610a22575b6109f657819073ffffffffffffffffffffffffffffffffffffffff80851691167f8c5be1e5ebec7d5bd14f71427d1e84f3dd0314c0f7b2291e5b200ac8c7c3b9255f80a45f52600460205273ffffffffffffffffffffffffffffffffffffffff60405f2091167fffffffffffffffffffffffff00000000000000000000000000000000000000008254161790555f80f35b7fa9fbf51f000000000000000000000000000000000000000000000000000000005f523360045260245ffd5b5073ffffffffffffffffffffffffffffffffffffffff81165f52600560205260405f2073ffffffffffffffffffffffffffffffffffffffff33165f5260205260ff60405f20541615610965565b503373ffffffffffffffffffffffffffffffffffffffff8216141561095f565b3461013e57602060031936011261013e57600435610aac81611158565b505f526004602052602073ffffffffffffffffffffffffffffffffffffffff60405f205416604051908152f35b3461013e575f60031936011261013e576040515f80548060011c90600181168015610b87575b60208310811461042d578285529081156103eb5750600114610b2b576101988361018481850382610d5a565b5f8080527f290decd9548b62a8d60345a988386fc84ba6bc95484008f6362f93160ef3e563939250905b808210610b6d5750909150810160200161018461037d565b919260018160209254838588010152019101909291610b55565b91607f1691610aff565b3461013e57602060031936011261013e576004357fffffffff00000000000000000000000000000000000000000000000000000000811680910361013e57807f80ac58cd0000000000000000000000000000000000000000000000000000000060209214908115610c39575b8115610c0f575b506040519015158152f35b7f01ffc9a70000000000000000000000000000000000000000000000000000000091501482610c04565b7f5b5e139f0000000000000000000000000000000000000000000000000000000081149150610bfd565b3461013e575f60031936011261013e576020906007548152f35b907fffffffffffffffffffffffffffffffffffffffffffffffffffffffffffffffe0601f602080948051918291828752018686015e5f8582860101520116010190565b6004359073ffffffffffffffffffffffffffffffffffffffff8216820361013e57565b6024359073ffffffffffffffffffffffffffffffffffffffff8216820361013e57565b600319606091011261013e5760043573ffffffffffffffffffffffffffffffffffffffff8116810361013e579060243573ffffffffffffffffffffffffffffffffffffffff8116810361013e579060443590565b90601f7fffffffffffffffffffffffffffffffffffffffffffffffffffffffffffffffe0910116810190811067ffffffffffffffff821117610d9b57604052565b7f4e487b71000000000000000000000000000000000000000000000000000000005f52604160045260245ffd5b604051905f6006548060011c9160018216918215610eaa575b60208410831461042d578386528592908115610e6d5750600114610e0e575b610e0c92500383610d5a565b565b5060065f90815290917ff652222313e28459528d920b65115c16c04f3efc82aaedc97be59f3f377c0d3f5b818310610e51575050906020610e0c92820101610e00565b6020919350806001915483858901015201910190918492610e39565b60209250610e0c9491507fffffffffffffffffffffffffffffffffffffffffffffffffffffffffffffff001682840152151560051b820101610e00565b92607f1692610de1565b67ffffffffffffffff8111610d9b57601f017fffffffffffffffffffffffffffffffffffffffffffffffffffffffffffffffe01660200190565b919073ffffffffffffffffffffffffffffffffffffffff1680156107c457815f52600260205273ffffffffffffffffffffffffffffffffffffffff60405f20541692823315159283611070575b73ffffffffffffffffffffffffffffffffffffffff935085611002575b805f52600360205260405f2060018154019055815f52600260205260405f20817fffffffffffffffffffffffff0000000000000000000000000000000000000000825416179055857fddf252ad1be2c89b69c2b068fc378daa952ba7f163c4a11628f55a4df523b3ef5f80a416808303610fd157505050565b7f64283d7b000000000000000000000000000000000000000000000000000000005f5260045260245260445260645ffd5b611039825f52600460205260405f207fffffffffffffffffffffffff00000000000000000000000000000000000000008154169055565b855f52600360205260405f207fffffffffffffffffffffffffffffffffffffffffffffffffffffffffffffffff8154019055610f58565b91929050806110e7575b1561108757828291610f3b565b82846110b8577f7e273289000000000000000000000000000000000000000000000000000000005f5260045260245ffd5b7f177e802f000000000000000000000000000000000000000000000000000000005f523360045260245260445ffd5b503384148015611122575b8061107a5750825f5260046020523373ffffffffffffffffffffffffffffffffffffffff60405f2054161461107a565b50835f52600560205260405f2073ffffffffffffffffffffffffffffffffffffffff33165f5260205260ff60405f2054166110f2565b805f52600260205273ffffffffffffffffffffffffffffffffffffffff60405f205416908115611186575090565b7f7e273289000000000000000000000000000000000000000000000000000000005f5260045260245ffd5b93909293823b6111c3575b5050505050565b61123073ffffffffffffffffffffffffffffffffffffffff928360209516968460405197889687967f150b7a020000000000000000000000000000000000000000000000000000000088521660048701521660248501526044840152608060648401526084830190610c7d565b03815f865af15f9181611300575b506112ac57503d156112a5573d61125481610eb4565b906112626040519283610d5a565b81523d5f602083013e5b805190816112a057827f64a0ae92000000000000000000000000000000000000000000000000000000005f5260045260245ffd5b602001fd5b606061126c565b7fffffffff000000000000000000000000000000000000000000000000000000007f150b7a02000000000000000000000000000000000000000000000000000000009116036106a857505f808080806111bc565b9091506020813d602011611355575b8161131c60209383610d5a565b8101031261013e57517fffffffff000000000000000000000000000000000000000000000000000000008116810361013e57905f61123e565b3d915061130f56fea164736f6c634300081a000a","linkReferences":{}},"methodIdentifiers":{"approve(address,uint256)":"095ea7b3","balanceOf(address)":"70a08231","baseURI()":"6c0360eb","currentTokenId()":"009a9b7b","getApproved(uint256)":"081812fc","isApprovedForAll(address,address)":"e985e9c5","mintTo(address)":"755edd17","name()":"06fdde03","ownerOf(uint256)":"6352211e","safeTransferFrom(address,address,uint256)":"42842e0e","safeTransferFrom(address,address,uint256,bytes)":"b88d4fde","setApprovalForAll(address,bool)":"a22cb465","supportsInterface(bytes4)":"01ffc9a7","symbol()":"95d89b41","tokenURI(uint256)":"c87b56dd","transferFrom(address,address,uint256)":"23b872dd"},"id":40}